{
  "contractName": "PensionSystem",
  "abi": [
    {
      "inputs": [],
      "payable": false,
      "stateMutability": "nonpayable",
      "type": "constructor"
    },
    {
      "anonymous": false,
      "inputs": [
        {
          "indexed": false,
          "internalType": "string",
          "name": "scheme_id",
          "type": "string"
        },
        {
          "indexed": false,
          "internalType": "address",
          "name": "user_id",
          "type": "address"
        }
      ],
      "name": "appliedPension",
      "type": "event"
    },
    {
      "anonymous": false,
      "inputs": [
        {
          "indexed": false,
          "internalType": "address",
          "name": "user_id",
          "type": "address"
        },
        {
          "indexed": false,
          "internalType": "string",
          "name": "scheme_id",
          "type": "string"
        }
      ],
      "name": "renewedPension",
      "type": "event"
    },
    {
      "anonymous": false,
      "inputs": [
        {
          "indexed": false,
          "internalType": "address",
          "name": "user_id",
          "type": "address"
        }
      ],
      "name": "userRegistered",
      "type": "event"
    },
    {
      "anonymous": false,
      "inputs": [
        {
          "indexed": false,
          "internalType": "address",
          "name": "user",
          "type": "address"
        }
      ],
      "name": "userUpdated",
      "type": "event"
    },
    {
      "constant": true,
      "inputs": [
        {
          "internalType": "address",
          "name": "",
          "type": "address"
        }
      ],
      "name": "user_present",
      "outputs": [
        {
          "internalType": "uint256",
          "name": "",
          "type": "uint256"
        }
      ],
      "payable": false,
      "stateMutability": "view",
      "type": "function"
    },
    {
      "constant": false,
      "inputs": [
        {
          "internalType": "string",
          "name": "name",
          "type": "string"
        },
        {
          "internalType": "string",
          "name": "emp_id",
          "type": "string"
        },
        {
          "internalType": "string",
          "name": "sal_id",
          "type": "string"
        },
        {
          "internalType": "uint256",
          "name": "day",
          "type": "uint256"
        },
        {
          "internalType": "uint256",
          "name": "month",
          "type": "uint256"
        },
        {
          "internalType": "uint256",
          "name": "year",
          "type": "uint256"
        }
      ],
      "name": "registerUser",
      "outputs": [],
      "payable": false,
      "stateMutability": "nonpayable",
      "type": "function"
    },
    {
      "constant": false,
      "inputs": [
        {
          "internalType": "string",
          "name": "scheme_id",
          "type": "string"
        },
        {
          "internalType": "uint256",
          "name": "day",
          "type": "uint256"
        },
        {
          "internalType": "uint256",
          "name": "month",
          "type": "uint256"
        },
        {
          "internalType": "uint256",
          "name": "year",
          "type": "uint256"
        }
      ],
      "name": "applyPension",
      "outputs": [],
      "payable": false,
      "stateMutability": "nonpayable",
      "type": "function"
    },
    {
      "constant": false,
      "inputs": [
        {
          "internalType": "string",
          "name": "scheme_id",
          "type": "string"
        },
        {
          "internalType": "uint256",
          "name": "day",
          "type": "uint256"
        },
        {
          "internalType": "uint256",
          "name": "month",
          "type": "uint256"
        },
        {
          "internalType": "uint256",
          "name": "year",
          "type": "uint256"
        }
      ],
      "name": "renewPension",
      "outputs": [],
      "payable": false,
      "stateMutability": "nonpayable",
      "type": "function"
    },
    {
      "constant": true,
      "inputs": [],
      "name": "getTransactionStatus",
      "outputs": [
        {
          "internalType": "bool",
          "name": "",
          "type": "bool"
        }
      ],
      "payable": false,
      "stateMutability": "view",
      "type": "function"
    },
    {
      "constant": true,
      "inputs": [],
      "name": "getAllAppliedSchemes",
      "outputs": [
        {
          "components": [
            {
              "components": [
                {
                  "internalType": "string",
                  "name": "scheme_id",
                  "type": "string"
                },
                {
                  "internalType": "string",
                  "name": "classification",
                  "type": "string"
                },
                {
                  "internalType": "string",
                  "name": "scheme_name",
                  "type": "string"
                },
                {
                  "internalType": "uint256",
                  "name": "amount",
                  "type": "uint256"
                },
                {
                  "internalType": "uint256",
                  "name": "eligible_age",
                  "type": "uint256"
                }
              ],
              "internalType": "struct PensionSystem.Schemes",
              "name": "scheme",
              "type": "tuple"
            },
            {
              "components": [
                {
                  "internalType": "uint256",
                  "name": "day",
                  "type": "uint256"
                },
                {
                  "internalType": "uint256",
                  "name": "month",
                  "type": "uint256"
                },
                {
                  "internalType": "uint256",
                  "name": "year",
                  "type": "uint256"
                }
              ],
              "internalType": "struct PensionSystem.Date",
              "name": "last_renewed",
              "type": "tuple"
            },
            {
              "components": [
                {
                  "internalType": "uint256",
                  "name": "day",
                  "type": "uint256"
                },
                {
                  "internalType": "uint256",
                  "name": "month",
                  "type": "uint256"
                },
                {
                  "internalType": "uint256",
                  "name": "year",
                  "type": "uint256"
                }
              ],
              "internalType": "struct PensionSystem.Date",
              "name": "applied_date",
              "type": "tuple"
            },
            {
              "components": [
                {
                  "internalType": "uint256",
                  "name": "day",
                  "type": "uint256"
                },
                {
                  "internalType": "uint256",
                  "name": "month",
                  "type": "uint256"
                },
                {
                  "internalType": "uint256",
                  "name": "year",
                  "type": "uint256"
                }
              ],
              "internalType": "struct PensionSystem.Date",
              "name": "next_renewal_date",
              "type": "tuple"
            }
          ],
          "internalType": "struct PensionSystem.SchemeAppliedDetails[]",
          "name": "",
          "type": "tuple[]"
        }
      ],
      "payable": false,
      "stateMutability": "view",
      "type": "function"
    },
    {
      "constant": true,
      "inputs": [
        {
          "internalType": "string",
          "name": "classification",
          "type": "string"
        }
      ],
      "name": "getAllSchemes",
      "outputs": [
        {
          "components": [
            {
              "internalType": "string",
              "name": "scheme_id",
              "type": "string"
            },
            {
              "internalType": "string",
              "name": "classification",
              "type": "string"
            },
            {
              "internalType": "string",
              "name": "scheme_name",
              "type": "string"
            },
            {
              "internalType": "uint256",
              "name": "amount",
              "type": "uint256"
            },
            {
              "internalType": "uint256",
              "name": "eligible_age",
              "type": "uint256"
            }
          ],
          "internalType": "struct PensionSystem.Schemes[]",
          "name": "",
          "type": "tuple[]"
        }
      ],
      "payable": false,
      "stateMutability": "view",
      "type": "function"
    },
    {
      "constant": true,
      "inputs": [],
      "name": "getUserRegistrationStatus",
      "outputs": [
        {
          "internalType": "bool",
          "name": "",
          "type": "bool"
        }
      ],
      "payable": false,
      "stateMutability": "view",
      "type": "function"
    },
    {
      "constant": false,
      "inputs": [
        {
          "internalType": "address",
          "name": "user",
          "type": "address"
        }
      ],
      "name": "setCurrentUser",
      "outputs": [],
      "payable": false,
      "stateMutability": "nonpayable",
      "type": "function"
    },
    {
      "constant": true,
      "inputs": [],
      "name": "getUserDetails",
      "outputs": [
        {
          "components": [
            {
              "internalType": "string",
              "name": "name",
              "type": "string"
            },
            {
              "internalType": "string",
              "name": "emp_id",
              "type": "string"
            },
            {
              "internalType": "string",
              "name": "sal_id",
              "type": "string"
            },
            {
              "components": [
                {
                  "internalType": "uint256",
                  "name": "day",
                  "type": "uint256"
                },
                {
                  "internalType": "uint256",
                  "name": "month",
                  "type": "uint256"
                },
                {
                  "internalType": "uint256",
                  "name": "year",
                  "type": "uint256"
                }
              ],
              "internalType": "struct PensionSystem.Date",
              "name": "dob",
              "type": "tuple"
            },
            {
              "internalType": "string[]",
              "name": "applied_schemes_id",
              "type": "string[]"
            }
          ],
          "internalType": "struct PensionSystem.User",
          "name": "",
          "type": "tuple"
        }
      ],
      "payable": false,
      "stateMutability": "view",
      "type": "function"
    }
  ],
  "bytecode": "0x60806040523480156200001157600080fd5b506040805160e081018252600460a08201908152634e30303160e01b60c0830152815281518083018352600881526713985d1a5bdb985b60c21b6020828101919091528083019190915282518084018452601d81527f4e6174696f6e616c204c6576656c2050656e73696f6e20536368656d65000000818301529282019290925261c3506060820152603c6080820152600380546001810180835560009290925282518051929460059092027fc2575a0e9e593c00f959f8c92f12db2869c3395a3b0502d05e2516446f71f85b0192620000ef9284920190620007d1565b5060208281015180516200010a9260018501920190620007d1565b506040820151805162000128916002840191602090910190620007d1565b5060608281015160038301556080928301516004928301556040805160e08101825260a08101938452635330303160e01b60c082015292835280518082018252600580825264537461746560d81b6020838101919091528086019290925282518084018452601a81527f5374617465204c6576656c2050656e73696f6e20536368656d65000000000000818401529285019290925261c34f92840192909252603c938301939093526002805460018101808355600092909252835180519296509394027f405787fa12a823e0f2b7631cc41b3ba8828b3321ca811111fa75cd3aa3bb5ace01926200021e928492910190620007d1565b506020828101518051620002399260018501920190620007d1565b506040820151805162000257916002840191602090910190620007d1565b5060608281015160038301556080928301516004928301556040805160e08101825260a08101938452634430303160e01b60c0820152928352805180820182526008815267111a5cdd1c9a58dd60c21b6020828101919091528085019190915281518083018352601d81527f4469737472696374204c6576656c2050656e73696f6e20536368656d65000000818301529184019190915261c2e091830191909152603c92820192909252600180548082018083556000929092528251805192955092936005909102600080516020620030308339815191520192620003439284929190910190620007d1565b5060208281015180516200035e9260018501920190620007d1565b50604082015180516200037c916002840191602090910190620007d1565b5060608281015160038301556080928301516004928301556040805160e08101825260a08101938452632218181960e11b60c0820152928352805180820182526008815267111a5cdd1c9a58dd60c21b6020828101919091528085019190915281518083018352601f81527f4469737472696374204c6576656c2050656e73696f6e20536368656d652d3200818301529184019190915261131891830191909152603792820192909252600180548082018083556000929092528251805192955092936005909102600080516020620030308339815191520192620004689284929190910190620007d1565b506020828101518051620004839260018501920190620007d1565b5060408201518051620004a1916002840191602090910190620007d1565b5060608201518160030155608082015181600401555050506003600081548110620004c857fe5b90600052602060002090600502016006604051620004e6906200098b565b90815260405190819003602001902081546200051990829084906002600019610100600184161502019091160462000856565b50600182018160010190805460018160011615610100020316600290046200054392919062000856565b50600282810180546200056a92848101929160001961010060018316150201160462000856565b5060038281015490820155600491820154910155600280546000906200058c57fe5b90600052602060002090600502016006604051620005aa9062000978565b9081526040519081900360200190208154620005dd90829084906002600019610100600184161502019091160462000856565b50600182018160010190805460018160011615610100020316600290046200060792919062000856565b50600282810180546200062e92848101929160001961010060018316150201160462000856565b5060038281015490820155600491820154910155600180546000906200065057fe5b906000526020600020906005020160066040516200066e9062000998565b9081526040519081900360200190208154620006a190829084906002600019610100600184161502019091160462000856565b5060018201816001019080546001816001161561010002031660029004620006cb92919062000856565b5060028281018054620006f292848101929160001961010060018316150201160462000856565b506003828101549082015560049182015491015560018054819081106200071557fe5b906000526020600020906005020160066040516200073390620009a5565b90815260405190819003602001902081546200076690829084906002600019610100600184161502019091160462000856565b50600182018160010190805460018160011615610100020316600290046200079092919062000856565b5060028281018054620007b792848101929160001961010060018316150201160462000856565b5060038281015490820155600491820154910155620009b7565b828054600181600116156101000203166002900490600052602060002090601f016020900481019282601f106200081457805160ff191683800117855562000844565b8280016001018555821562000844579182015b828111156200084457825182559160200191906001019062000827565b5062000852929150620008d0565b5090565b828054600181600116156101000203166002900490600052602060002090601f016020900481019282601f1062000891578054855562000844565b828001600101855582156200084457600052602060002091601f016020900482015b8281111562000844578254825591600101919060010190620008b3565b620008ed91905b80821115620008525760008155600101620008d7565b90565b6000620008ff600483620009b2565b635330303160e01b815260040192915050565b600062000921600483620009b2565b634e30303160e01b815260040192915050565b600062000943600483620009b2565b634430303160e01b815260040192915050565b600062000965600483620009b2565b632218181960e11b815260040192915050565b60006200098582620008f0565b92915050565b6000620009858262000912565b6000620009858262000934565b6000620009858262000956565b919050565b61266980620009c76000396000f3fe608060405234801561001057600080fd5b506004361061009e5760003560e01c806386c141821161006657806386c1418214610129578063942886be1461013e578063cb60ff3414610153578063cee9c89a1461015b578063ddf76ef21461016e5761009e565b80630b068689146100a35780630cfbd799146100b85780631d1f18b2146100cb578063679e1d0d146100f457806368f8a66d14610114575b600080fd5b6100b66100b1366004611f38565b610181565b005b6100b66100c6366004612061565b6101e8565b6100de6100d9366004611f5e565b610630565b6040516100eb91906124eb565b60405180910390f35b610107610102366004611f38565b610d67565b6040516100eb919061253b565b61011c610d79565b6040516100eb91906124da565b610131611054565b6040516100eb91906124fc565b610146611078565b6040516100eb919061252a565b61013161137d565b6100b6610169366004612061565b611386565b6100b661017c366004611f93565b611af9565b60008054610100600160a81b0319166101006001600160a01b03848116820292909217928390556040517f0d4f95fb5937be8ecc760da6c9b823e799e3f61b77b982245dc5fe3bbbd10596936101dd93929004909116906124ac565b60405180910390a150565b6000805460ff191690556101fa611ca9565b604051806060016040528085815260200184815260200183815250905061021f611ca9565b50604080516060808201835260058701825260208083018790528284018690526000805461010090046001600160a01b0316815260078252848120805486518185028101850190975280875294959394909290919084015b8282101561050b57600084815260209081902060408051600e8602909201805460026001821615610100026000190190911604601f8101859004909402830161014090810190925261012083018481529293909284926080840192859284929091849187018282801561032b5780601f106103005761010080835404028352916020019161032b565b820191906000526020600020905b81548152906001019060200180831161030e57829003601f168201915b50505050508152602001600182018054600181600116156101000203166002900480601f0160208091040260200160405190810160405280929190818152602001828054600181600116156101000203166002900480156103cd5780601f106103a2576101008083540402835291602001916103cd565b820191906000526020600020905b8154815290600101906020018083116103b057829003601f168201915b5050509183525050600282810180546040805160206001841615610100026000190190931694909404601f8101839004830285018301909152808452938101939083018282801561045f5780601f106104345761010080835404028352916020019161045f565b820191906000526020600020905b81548152906001019060200180831161044257829003601f168201915b5050509183525050600382015460208083019190915260049092015460409182015291835281516060808201845260058601548252600686015482840152600786015482850152848301919091528251808201845260088601548152600986015481840152600a860154818501528484015282518082018452600b8601548152600c86015481840152600d90950154928501929092529101919091529082526001929092019101610277565b509293506000925050505b81518110156105cd5781818151811061052b57fe5b6020908102919091018101515151604051610546920161248a565b604051602081830303815290604052805190602001208860405160200161056d919061248a565b60405160208183030381529060405280519060200120146105c5578382828151811061059557fe5b602002602001015160200181905250828282815181106105b157fe5b6020026020010151606001819052506105cd565b600101610516565b5060008054600160ff1990911617908190556040517f61f48dc68a8be4228d89c218c2863aeb8fed89667344e83f3068266ecc8160a89161061f916101009091046001600160a01b0316908a906124ba565b60405180910390a150505050505050565b6060604051602001610641906124a1565b6040516020818303038152906040528051906020012082604051602001610668919061248a565b6040516020818303038152906040528051906020012014156108ba576003805480602002602001604051908101604052809291908181526020016000905b828210156108af5760008481526020908190206040805160058602909201805460026001821615610100026000190190911604601f8101859004909402830160c090810190925260a083018481529293909284929091849184018282801561074f5780601f106107245761010080835404028352916020019161074f565b820191906000526020600020905b81548152906001019060200180831161073257829003601f168201915b50505050508152602001600182018054600181600116156101000203166002900480601f0160208091040260200160405190810160405280929190818152602001828054600181600116156101000203166002900480156107f15780601f106107c6576101008083540402835291602001916107f1565b820191906000526020600020905b8154815290600101906020018083116107d457829003601f168201915b5050509183525050600282810180546040805160206001841615610100026000190190931694909404601f810183900483028501830190915280845293810193908301828280156108835780601f1061085857610100808354040283529160200191610883565b820191906000526020600020905b81548152906001019060200180831161086657829003601f168201915b5050505050815260200160038201548152602001600482015481525050815260200190600101906106a6565b505050509050610d62565b6040516020016108c990612496565b60405160208183030381529060405280519060200120826040516020016108f0919061248a565b604051602081830303815290604052805190602001201415610b37576002805480602002602001604051908101604052809291908181526020016000905b828210156108af5760008481526020908190206040805160058602909201805460026001821615610100026000190190911604601f8101859004909402830160c090810190925260a08301848152929390928492909184918401828280156109d75780601f106109ac576101008083540402835291602001916109d7565b820191906000526020600020905b8154815290600101906020018083116109ba57829003601f168201915b50505050508152602001600182018054600181600116156101000203166002900480601f016020809104026020016040519081016040528092919081815260200182805460018160011615610100020316600290048015610a795780601f10610a4e57610100808354040283529160200191610a79565b820191906000526020600020905b815481529060010190602001808311610a5c57829003601f168201915b5050509183525050600282810180546040805160206001841615610100026000190190931694909404601f81018390048302850183019091528084529381019390830182828015610b0b5780601f10610ae057610100808354040283529160200191610b0b565b820191906000526020600020905b815481529060010190602001808311610aee57829003601f168201915b50505050508152602001600382015481526020016004820154815250508152602001906001019061092e565b6001805480602002602001604051908101604052809291908181526020016000905b828210156108af5760008481526020908190206040805160058602909201805460026001821615610100026000190190911604601f8101859004909402830160c090810190925260a0830184815292939092849290918491840182828015610c025780601f10610bd757610100808354040283529160200191610c02565b820191906000526020600020905b815481529060010190602001808311610be557829003601f168201915b50505050508152602001600182018054600181600116156101000203166002900480601f016020809104026020016040519081016040528092919081815260200182805460018160011615610100020316600290048015610ca45780601f10610c7957610100808354040283529160200191610ca4565b820191906000526020600020905b815481529060010190602001808311610c8757829003601f168201915b5050509183525050600282810180546040805160206001841615610100026000190190931694909404601f81018390048302850183019091528084529381019390830182828015610d365780601f10610d0b57610100808354040283529160200191610d36565b820191906000526020600020905b815481529060010190602001808311610d1957829003601f168201915b505050505081526020016003820154815260200160048201548152505081526020019060010190610b59565b919050565b60046020526000908152604090205481565b6000805461010090046001600160a01b03168152600760209081526040808320805482518185028101850190935280835260609492939192909184015b8282101561104a57600084815260209081902060408051600e8602909201805460026001821615610100026000190190911604601f81018590049094028301610140908101909252610120830184815292939092849260808401928592849290918491870182828015610e6a5780601f10610e3f57610100808354040283529160200191610e6a565b820191906000526020600020905b815481529060010190602001808311610e4d57829003601f168201915b50505050508152602001600182018054600181600116156101000203166002900480601f016020809104026020016040519081016040528092919081815260200182805460018160011615610100020316600290048015610f0c5780601f10610ee157610100808354040283529160200191610f0c565b820191906000526020600020905b815481529060010190602001808311610eef57829003601f168201915b5050509183525050600282810180546040805160206001841615610100026000190190931694909404601f81018390048302850183019091528084529381019390830182828015610f9e5780601f10610f7357610100808354040283529160200191610f9e565b820191906000526020600020905b815481529060010190602001808311610f8157829003601f168201915b5050509183525050600382015460208083019190915260049092015460409182015291835281516060808201845260058601548252600686015482840152600786015482850152848301919091528251808201845260088601548152600986015481840152600a860154818501528484015282518082018452600b8601548152600c86015481840152600d90950154928501929092529101919091529082526001929092019101610db6565b5050505090505b90565b6000805461010090046001600160a01b031681526004602052604090205460011490565b611080611cca565b600080546001600160a01b0361010091829004168252600560209081526040928390208351815460c0601f6002600019600185161590980297909701909216959095049081018490049093028101840190945260a084018281529092849284918401828280156111315780601f1061110657610100808354040283529160200191611131565b820191906000526020600020905b81548152906001019060200180831161111457829003601f168201915b50505050508152602001600182018054600181600116156101000203166002900480601f0160208091040260200160405190810160405280929190818152602001828054600181600116156101000203166002900480156111d35780601f106111a8576101008083540402835291602001916111d3565b820191906000526020600020905b8154815290600101906020018083116111b657829003601f168201915b5050509183525050600282810180546040805160206001841615610100026000190190931694909404601f810183900483028501830190915280845293810193908301828280156112655780601f1061123a57610100808354040283529160200191611265565b820191906000526020600020905b81548152906001019060200180831161124857829003601f168201915b50505050508152602001600382016040518060600160405290816000820154815260200160018201548152602001600282015481525050815260200160068201805480602002602001604051908101604052809291908181526020016000905b828210156113705760008481526020908190208301805460408051601f600260001961010060018716150201909416939093049283018590048502810185019091528181529283018282801561135c5780601f106113315761010080835404028352916020019161135c565b820191906000526020600020905b81548152906001019060200180831161133f57829003601f168201915b5050505050815260200190600101906112c5565b5050505081525050905090565b60005460ff1690565b6000805460ff191680825561010090046001600160a01b03168152600760209081526040808320805482518185028101850190935280835260609492939192909184015b8282101561165e57600084815260209081902060408051600e8602909201805460026001821615610100026000190190911604601f8101859004909402830161014090810190925261012083018481529293909284926080840192859284929091849187018282801561147e5780601f106114535761010080835404028352916020019161147e565b820191906000526020600020905b81548152906001019060200180831161146157829003601f168201915b50505050508152602001600182018054600181600116156101000203166002900480601f0160208091040260200160405190810160405280929190818152602001828054600181600116156101000203166002900480156115205780601f106114f557610100808354040283529160200191611520565b820191906000526020600020905b81548152906001019060200180831161150357829003601f168201915b5050509183525050600282810180546040805160206001841615610100026000190190931694909404601f810183900483028501830190915280845293810193908301828280156115b25780601f10611587576101008083540402835291602001916115b2565b820191906000526020600020905b81548152906001019060200180831161159557829003601f168201915b5050509183525050600382015460208083019190915260049092015460409182015291835281516060808201845260058601548252600686015482840152600786015482850152848301919091528251808201845260088601548152600986015481840152600a860154818501528484015282518082018452600b8601548152600c86015481840152600d909501549285019290925291019190915290825260019290920191016113ca565b509293506000925050505b81518110156116eb5785604051602001611683919061248a565b604051602081830303815290604052805190602001208282815181106116a557fe5b60209081029190910181015151516040516116c0920161248a565b6040516020818303038152906040528051906020012014156116e3575050611af3565b600101611669565b506000805461010090046001600160a01b03168152600560209081526040822060060180546001810180835591845292829020885191936117329391019190890190611cff565b505061173c611d7d565b60068660405161174c919061248a565b9081526040805160209281900383018120805460026001821615610100026000190190911604601f8101859004909402820160c090810190935260a082018481529193909284929184918401828280156117e75780601f106117bc576101008083540402835291602001916117e7565b820191906000526020600020905b8154815290600101906020018083116117ca57829003601f168201915b50505050508152602001600182018054600181600116156101000203166002900480601f0160208091040260200160405190810160405280929190818152602001828054600181600116156101000203166002900480156118895780601f1061185e57610100808354040283529160200191611889565b820191906000526020600020905b81548152906001019060200180831161186c57829003601f168201915b5050509183525050600282810180546040805160206001841615610100026000190190931694909404601f8101839004830285018301909152808452938101939083018282801561191b5780601f106118f05761010080835404028352916020019161191b565b820191906000526020600020905b8154815290600101906020018083116118fe57829003601f168201915b50505050508152602001600382015481526020016004820154815250509050611942611dac565b506040805160808101825282815281516060808201845288825260208083018990528285018890528084019290925283518082018552898152808301899052808501889052838501528351808201855260058a018152808301899052808501889052908301526000805461010090046001600160a01b031681526007825292832080546001810180835591855293829020835180518051959693958795600e90950290930193919284926119fa928492910190611cff565b506020828101518051611a139260018501920190611cff565b5060408201518051611a2f916002840191602090910190611cff565b5060608281015160038301556080909201516004909101556020838101518051600585015580820151600685015560409081015160078501558085015180516008860155808301516009860155810151600a85015593909101518051600b84015590810151600c830155820151600d9091015560008054600160ff19909116179081905590517f5e5e1e3b0f69477af54ef5e1e57629ede1b3b7631dba6a14ee71d43651f70478925061061f918a916101009091046001600160a01b03169061250a565b50505050565b6000805460ff191680825561010090046001600160a01b031681526004602052604090205460011415611b2b57611ca1565b6000805461010090046001600160a01b0316815260046020526040902060019055611b54611ca9565b60405180606001604052808581526020018481526020018381525090506060611b7b611cca565b506040805160a08101825289815260208082018a905281830189905260608201859052608082018490526000805461010090046001600160a01b0316815260058252929092208151805192938493611bd69284920190611cff565b506020828101518051611bef9260018501920190611cff565b5060408201518051611c0b916002840191602090910190611cff565b506060820151805160038301556020808201516004840155604090910151600583015560808301518051611c459260068501920190611deb565b50506000805460ff1916600117908190556040517fbccbc36cc6dac185f9905c12b69a310c4d0b82bdfbc3bbbb8e3d2ff33c8176b09250611c95916001600160a01b0361010090910416906124ac565b60405180910390a15050505b505050505050565b60405180606001604052806000815260200160008152602001600081525090565b6040518060a00160405280606081526020016060815260200160608152602001611cf2611ca9565b8152602001606081525090565b828054600181600116156101000203166002900490600052602060002090601f016020900481019282601f10611d4057805160ff1916838001178555611d6d565b82800160010185558215611d6d579182015b82811115611d6d578251825591602001919060010190611d52565b50611d79929150611e44565b5090565b6040518060a0016040528060608152602001606081526020016060815260200160008152602001600081525090565b6040518060800160405280611dbf611d7d565b8152602001611dcc611ca9565b8152602001611dd9611ca9565b8152602001611de6611ca9565b905290565b828054828255906000526020600020908101928215611e38579160200282015b82811115611e385782518051611e28918491602090910190611cff565b5091602001919060010190611e0b565b50611d79929150611e5e565b61105191905b80821115611d795760008155600101611e4a565b61105191905b80821115611d79576000611e788282611e81565b50600101611e64565b50805460018160011615610100020316600290046000825580601f10611ea75750611ec5565b601f016020900490600052602060002090810190611ec59190611e44565b50565b8035611ed381612609565b92915050565b600082601f830112611eea57600080fd5b8135611efd611ef882612570565b612549565b91508082526020830160208301858383011115611f1957600080fd5b611f248382846125c7565b50505092915050565b8035611ed38161261d565b600060208284031215611f4a57600080fd5b6000611f568484611ec8565b949350505050565b600060208284031215611f7057600080fd5b813567ffffffffffffffff811115611f8757600080fd5b611f5684828501611ed9565b60008060008060008060c08789031215611fac57600080fd5b863567ffffffffffffffff811115611fc357600080fd5b611fcf89828a01611ed9565b965050602087013567ffffffffffffffff811115611fec57600080fd5b611ff889828a01611ed9565b955050604087013567ffffffffffffffff81111561201557600080fd5b61202189828a01611ed9565b945050606061203289828a01611f2d565b935050608061204389828a01611f2d565b92505060a061205489828a01611f2d565b9150509295509295509295565b6000806000806080858703121561207757600080fd5b843567ffffffffffffffff81111561208e57600080fd5b61209a87828801611ed9565b94505060206120ab87828801611f2d565b93505060406120bc87828801611f2d565b92505060606120cd87828801611f2d565b91505092959194509250565b60006120e5838361224c565b9392505050565b60006120e5838361232f565b60006120e5838361238b565b61210d816125ab565b82525050565b600061211e8261259e565b61212881856125a2565b93508360208202850161213a85612598565b8060005b85811015612174578484038952815161215785826120d9565b945061216283612598565b60209a909a019992505060010161213e565b5091979650505050505050565b600061218c8261259e565b61219681856125a2565b9350836020820285016121a885612598565b8060005b8581101561217457848403895281516121c585826120ec565b94506121d083612598565b60209a909a01999250506001016121ac565b60006121ed8261259e565b6121f781856125a2565b93508360208202850161220985612598565b8060005b85811015612174578484038952815161222685826120f8565b945061223183612598565b60209a909a019992505060010161220d565b61210d816125b6565b60006122578261259e565b61226181856125a2565b93506122718185602086016125d3565b61227a816125ff565b9093019392505050565b600061228f8261259e565b6122998185610d62565b93506122a98185602086016125d3565b9290920192915050565b60006122c0600583610d62565b64537461746560d81b815260050192915050565b60006122e1600883610d62565b6713985d1a5bdb985b60c21b815260080192915050565b805160608301906123098482612481565b50602082015161231c6020850182612481565b506040820151611af36040850182612481565b805161014080845260009190840190612348828261238b565b915050602083015161235d60208601826122f8565b50604083015161237060808601826122f8565b50606083015161238360e08601826122f8565b509392505050565b805160a0808452600091908401906123a3828261224c565b915050602083015184820360208601526123bd828261224c565b915050604083015184820360408601526123d7828261224c565b91505060608301516123ec6060860182612481565b5060808301516123836080860182612481565b805160e080845260009190840190612417828261224c565b91505060208301518482036020860152612431828261224c565b9150506040830151848203604086015261244b828261224c565b915050606083015161246060608601826122f8565b50608083015184820360c08601526124788282612113565b95945050505050565b61210d81611051565b60006120e58284612284565b6000611ed3826122b3565b6000611ed3826122d4565b60208101611ed38284612104565b604081016124c88285612104565b8181036020830152611f56818461224c565b602080825281016120e58184612181565b602080825281016120e581846121e2565b60208101611ed38284612243565b6040808252810161251b818561224c565b90506120e56020830184612104565b602080825281016120e581846123ff565b60208101611ed38284612481565b60405181810167ffffffffffffffff8111828210171561256857600080fd5b604052919050565b600067ffffffffffffffff82111561258757600080fd5b506020601f91909101601f19160190565b60200190565b5190565b90815260200190565b6000611ed3826125bb565b151590565b6001600160a01b031690565b82818337506000910152565b60005b838110156125ee5781810151838201526020016125d6565b83811115611af35750506000910152565b601f01601f191690565b612612816125ab565b8114611ec557600080fd5b6126128161105156fea365627a7a7231582057b3fcfeb05db95c241b9cf2ce3d5b7d1901c5254cdc713be3b3a5374fc6a49c6c6578706572696d656e74616cf564736f6c63430005100040b10e2d527612073b26eecdfd717e6a320cf44b4afac2b0732d9fcbe2b7fa0cf6",
  "source": "// SPDX-License-Identifier: MIT\r\npragma solidity >=0.4.22 <0.9.0;\r\npragma experimental ABIEncoderV2;\r\n\r\ncontract PensionSystem {\r\n    bool private transaction_status;\r\n    address private current_user;\r\n\r\n    // ----------Structures----------\r\n    struct Date {\r\n        uint day;\r\n        uint month;\r\n        uint year;\r\n    }\r\n\r\n    struct Schemes {\r\n        string scheme_id;\r\n        string classification;\r\n        string scheme_name;\r\n        uint amount;\r\n        uint eligible_age;\r\n    }\r\n\r\n    struct SchemeAppliedDetails {\r\n        Schemes scheme;\r\n        Date last_renewed;\r\n        Date applied_date;\r\n        Date next_renewal_date;\r\n    }\r\n\r\n    struct User {\r\n        string name;\r\n        string emp_id;\r\n        string sal_id;\r\n//        address public_id;\r\n        Date dob;\r\n        string[] applied_schemes_id;\r\n    }\r\n    //---------- Structures end----------\r\n\r\n    Schemes[] district;\r\n    Schemes[] state;\r\n    Schemes[] national;\r\n\r\n    constructor() public{\r\n        national.push(Schemes(\"N001\", \"National\", \"National Level Pension Scheme\", 50000, 60));\r\n        state.push(Schemes(\"S001\", \"State\", \"State Level Pension Scheme\", 49999, 60));\r\n        district.push(Schemes(\"D001\", \"District\", \"District Level Pension Scheme\", 49888, 60));\r\n        district.push(Schemes(\"D002\", \"District\", \"District Level Pension Scheme-2\", 4888, 55));\r\n\r\n        scheme_details[\"N001\"] = national[0];\r\n        scheme_details[\"S001\"] = state[0];\r\n        scheme_details[\"D001\"] = district[0];\r\n        scheme_details[\"D002\"] = district[1];\r\n    }\r\n\r\n    //----------Mappings----------\r\n    mapping(address => uint) public user_present;\r\n    mapping(address => User) user_details;\r\n    mapping(string => Schemes) scheme_details;\r\n    mapping(address => SchemeAppliedDetails[]) user_applied_schemes;\r\n    // ----------Mappings end----------\r\n//    error alreadyRegistered();\r\n    //----------Events----------\r\n    event userRegistered(address user_id);\r\n    event appliedPension(string scheme_id, address user_id);\r\n    event renewedPension(address user_id, string scheme_id);\r\n    event userUpdated(address user);\r\n\r\n    //----------Events end----------\r\n\r\n\r\n    //----------Functions start----------\r\n\r\n    // Function to register user\r\n    function registerUser(string memory name, string memory emp_id, string memory sal_id, uint day, uint month, uint year) public {\r\n        transaction_status = false;\r\n\r\n        // user is already registered\r\n        if(user_present[current_user] == 1) {\r\n            return;\r\n        }\r\n        user_present[current_user] = 1;\r\n        Date memory dob = Date(day, month, year);\r\n        string[] memory applied_schemes_id;\r\n\r\n        User memory new_user = User(name, emp_id, sal_id, dob, applied_schemes_id);\r\n        user_details[current_user] = new_user;\r\n\r\n        transaction_status = true;\r\n        emit userRegistered(current_user);\r\n    }\r\n\r\n    // Function to apply pension\r\n    function applyPension(string memory scheme_id, uint day, uint month, uint year) public {\r\n        transaction_status = false;\r\n\r\n        SchemeAppliedDetails[] memory applied = user_applied_schemes[current_user];\r\n\r\n        // User has already applied in the given scheme\r\n        for(uint i = 0; i < applied.length; ++i) {\r\n            if(keccak256(abi.encodePacked(applied[i].scheme.scheme_id)) == keccak256(abi.encodePacked(scheme_id))){\r\n                return;\r\n            }\r\n        }\r\n\r\n        // Add current scheme id to users data\r\n        user_details[current_user].applied_schemes_id.push(scheme_id);\r\n\r\n        Schemes memory scheme = scheme_details[scheme_id];\r\n        SchemeAppliedDetails memory applying = SchemeAppliedDetails(scheme, Date(day, month, year), Date(day, month, year), Date(day + 5, month, year));\r\n\r\n        // Add current schemes details to user applied schemes data\r\n        user_applied_schemes[current_user].push(applying);\r\n        transaction_status = true;\r\n        emit appliedPension(scheme_id, current_user);\r\n    }\r\n\r\n    // Function to renew pension for current user\r\n    function renewPension(string memory scheme_id, uint day, uint month, uint year) public {\r\n        transaction_status = false;\r\n\r\n        Date memory renew_date = Date(day, month, year);\r\n        Date memory next_renewal_date = Date(day + 5, month, year);\r\n\r\n        // Get all the pensions in which user has applied\r\n        SchemeAppliedDetails[] memory applied_schemes = user_applied_schemes[current_user];\r\n\r\n        for(uint i = 0; i < applied_schemes.length; ++i) {\r\n            // find the scheme id in the array of user applied schemes\r\n            if(keccak256(abi.encodePacked(scheme_id)) != keccak256(abi.encodePacked(applied_schemes[i].scheme.scheme_id))) {\r\n                // update renewed date and next_renewal_date\r\n                applied_schemes[i].last_renewed = renew_date;\r\n                applied_schemes[i].next_renewal_date = next_renewal_date;\r\n                break;\r\n            }\r\n        }\r\n        transaction_status = true;\r\n        emit renewedPension(current_user, scheme_id);\r\n    }\r\n\r\n    // function to get transaction status\r\n    function getTransactionStatus() public view returns(bool) {\r\n        return transaction_status;\r\n    }\r\n\r\n    // function to get all the schemes in which current user has applied\r\n    function getAllAppliedSchemes() public view returns(SchemeAppliedDetails[] memory) {\r\n        return user_applied_schemes[current_user];\r\n    }\r\n\r\n    // function to get all available schemes\r\n    function getAllSchemes(string memory classification) public view returns(Schemes[] memory) {\r\n        if(keccak256(abi.encodePacked(classification)) == keccak256(abi.encodePacked(\"National\"))) return national;\r\n        else if(keccak256(abi.encodePacked(classification)) == keccak256(abi.encodePacked(\"State\"))) return state;\r\n        else return district;\r\n    }\r\n\r\n    function getUserRegistrationStatus() public view returns(bool) {\r\n        return (user_present[current_user] == 1);\r\n    }\r\n\r\n    function setCurrentUser(address user) public {\r\n        current_user = user;\r\n        emit userUpdated(current_user);\r\n    }\r\n\r\n    function getUserDetails() public view returns (User memory) {\r\n        return user_details[current_user];\r\n    }\r\n    //----------Functions End----------\r\n}",
  "sourcePath": "D:\\AndroidStudioProjects\\Blockchain-Secured-Pension-System\\contracts\\PensionSystem.sol",
  "compiler": {
    "name": "solc",
    "version": "0.5.16+commit.9c3226ce.Emscripten.clang"
  },
  "schemaVersion": "3.4.9",
  "updatedAt": "2022-12-14T11:01:57.706Z",
  "networkType": "ethereum",
  "devdoc": {
    "methods": {}
  },
  "userdoc": {
    "methods": {}
  }
}